:100000000C942A000C9447000C9447000C94470071
:100010000C9447000C9447000C9447000C94470044
:100020000C9447000C9447000C9447000C94470034
:100030000C9447000C9447000C9447000C94470024
:100040000C9447000C9447000C9447000C94470014
:100050000C94470011241FBECFE5D8E0DEBFCDBF12
:1000600021E0A0E6B0E001C01D92AD31B207E1F79A
:1000700010E0A0E6B0E0E2EEF8E002C005900D92DC
:10008000A036B107D9F70E949F020C946F040C941C
:100090000000FC01C398BB9AF8949B0121503109E0
:1000A000672B09F41FC00190008007D0029005D093
:1000B00001900190019001D012C008D007D006D065
:1000C00005D004D003D002D001D00895001CC39AFB
:1000D00008F0C3980000000008F4C3980895215068
:1000E000310908F7789485ED8A95F1F700000895B5
:1000F000E0E6F0E02DE131E08083618342833396D6
:10010000E217F307C9F708956FE370E080E690E027
:100110000E94490008956FE370E080E690E00E943D
:10012000490008954F925F926F927F928F929F92B3
:10013000AF92BF92CF92DF92EF92FF920F931F93F5
:10014000CF93DF93D62FC72FB82EA92E922E832EB2
:10015000742E652E6701780120E030E0A901C70107
:10016000B6010E941003882354F420E030E040E8F8
:100170005FE3C701B6010E94A4026B017C0120E08D
:1001800030E040E85FE3C701B6010E94FD031816A6
:1001900054F420E030E040E85FE3C701B6010E947C
:1001A000A3026B017C012BEA3AEA4AE25EE3C70153
:1001B000B6010E9410038823FCF42D2F3C2F4B2DF9
:1001C0005A2D692D782D872D962D0E94A30220E0AF
:1001D00030E040EC50E40E940204A70196010E9426
:1001E00002042D2F3C2F4B2D5A2D0E94A402962E37
:1001F000872E782E692E43C020E030E040E05FE398
:10020000C701B6010E9410038823CCF12BEA3AEA19
:100210004AE25FE3C701B6010E94100388235CF540
:100220002D2F3C2F4B2D5A2D692D782D872D962D56
:100230000E94A3022B013C01A70196016BEA7AEA16
:100240008AE29FE30E94A3029B01AC01C301B201B9
:100250000E94020420E030E040EC50E40E940204DE
:100260002D2F3C2F4B2D5A2D0E94A402962E872E07
:10027000782E692E04C09D2E8C2E7B2C6A2C692D25
:10028000782D872D962DDF91CF911F910F91FF90A3
:10029000EF90DF90CF90BF90AF909F908F907F9026
:1002A0006F905F904F9008952F923F924F925F9280
:1002B0006F927F928F929F92AF92BF92CF92DF9276
:1002C000EF92FF920F931F93CF93DF93CDB7DEB7DB
:1002D0002C970FB6F894DEBF0FBECDBF69837A832B
:1002E0008B839C8329013A013E2C2F2C802E912E4A
:1002F000DC86CB8620E030E0A901C301B2010E9478
:100300001003882309F488C020E030E040E05FE378
:100310006E2D7F2D802F912F0E94100388238CF447
:1003200020E030E040E85FE3C301B2010E94A40294
:100330002E2D3F2D402F512F0E9402042B013C01F6
:100340001AC02E2D3F2D402F512FC301B2010E9404
:10035000A4026B017C01232D322D402F512FC301AC
:10036000B2010E9402049B01AC01C701B6010E94C8
:10037000A3022B013C01232D322D482D592D632D35
:10038000722D882D992D0E94A402A30192010E9432
:10039000A3026D837E838F8398872BEA3AEA4AEA29
:1003A0005EE369817A818B819C810E94A4027B013A
:1003B0008C01A30192016D817E818F8198850E94BD
:1003C0009200362E272E882E992EE980FA800B81F6
:1003D0001C81A30192016D817E818F8198850E948D
:1003E0009200D62EC72E89879A872BEA3AEA4AEAE4
:1003F0005EE3C801B7010E94A3027B018C01A30147
:1004000092016D817E818F8198850E949200F62EE7
:10041000E72EB82EA92E08C0FE2CE22CB02EA12E5D
:10042000D32CC22C09871A8720E030E04FE753E431
:10043000632D722D882D992D0E9402040E941C03A9
:10044000EB85FC85608320E030E04FE753E46D2DC1
:100450007C2D89859A850E9402040E941C03EB85ED
:10046000FC85618320E030E04FE753E46F2D7E2D63
:100470008B2D9A2D0E9402040E941C03EB85FC85A3
:1004800062832C960FB6F894DEBF0FBECDBFDF910E
:10049000CF911F910F91FF90EF90DF90CF90BF9081
:1004A000AF909F908F907F906F905F904F903F9014
:1004B0002F900895CF93DF9300D01F92CDB7DEB772
:1004C000812C912C54012AE037ED43E25CE3C50115
:1004D000B4010E94A4024B015C010E941503072E87
:1004E000000C880B990B0E944D039B01AC01C501C8
:1004F000B4010E94A3024B015C01CE0101966C0184
:100500001DECE12E1CECF12E0CE41EE320E030E0AB
:1005100040E85FE3C501B4010E9454014B816A8148
:1005200089810E9478000E948B009FEF22E587E07E
:10053000915020408040E1F700C00000C4CF0E94ED
:1005400084000E945A025058BB27AA270E94BB026F
:100550000C94C3030E94B50338F00E94BC0320F042
:1005600039F49F3F19F426F40C94B2030EF4E0958D
:10057000E7FB0C94AC03E92F0E94D40358F3BA179D
:10058000620773078407950720F079F4A6F50C94A9
:10059000F6030EF4E0950B2EBA2FA02D0B01B90136
:1005A00090010C01CA01A0011124FF27591B99F0E9
:1005B000593F50F4503E68F11A16F040A22F232FF5
:1005C000342F4427585FF3CF469537952795A79545
:1005D000F0405395C9F77EF41F16BA0B620B730BEC
:1005E000840BBAF09150A1F0FF0FBB1F661F771F5D
:1005F000881FC2F70EC0BA0F621F731F841F48F412
:10060000879577956795B795F7959E3F08F0B0CF9A
:100610009395880F08F09927EE0F97958795089581
:100620000E94880308F481E008950E941C036894E6
:10063000B1110C94F70308950E94DC0388F09F57D2
:1006400098F0B92F9927B751B0F0E1F0660F771FF6
:10065000881F991F1AF0BA95C9F714C0B13091F0EC
:100660000E94F603B1E008950C94F603672F782FEB
:100670008827B85F39F0B93FCCF3869577956795B1
:10068000B395D9F73EF490958095709561957F4F1D
:100690008F4F9F4F0895E89409C097FB3EF49095C3
:1006A0008095709561957F4F8F4F9F4F9923A9F04B
:1006B000F92F96E9BB279395F695879577956795DA
:1006C000B795F111F8CFFAF4BB0F11F460FF1BC01E
:1006D0006F5F7F4F8F4F9F4F16C0882311F096E9B1
:1006E00011C0772321F09EE8872F762F05C066235F
:1006F00071F096E8862F70E060E02AF09A95660F18
:10070000771F881FDAF7880F9695879597F90895D0
:10071000990F0008550FAA0BE0E8FEEF1616170612
:10072000E807F907C0F012161306E407F50798F07A
:10073000621B730B840B950B39F40A2661F0232B93
:10074000242B252B21F408950A2609F4A140A6950F
:100750008FEF811D811D089597F99F6780E870E0F4
:1007600060E008959FEF80EC089500240A94161627
:10077000170618060906089500240A94121613068F
:10078000140605060895092E0394000C11F488231D
:1007900052F0BB0F40F4BF2B11F460FF04C06F5F39
:1007A0007F4F8F4F9F4F089557FD9058440F551F0F
:1007B00059F05F3F71F04795880F97FB991F61F0E3
:1007C0009F3F79F087950895121613061406551F5A
:1007D000F2CF4695F1DF08C0161617061806991FC6
:1007E000F1CF86957105610508940895E894BB27BB
:1007F00066277727CB0197F908950E94880308F4AC
:100800008FEF08950E9415040C94C3030E94B50352
:1008100038F00E94BC0320F0952311F00C94AC0337
:100820000C94B20311240C94F7030E94D40370F3C8
:10083000959FC1F3950F50E0551F629FF001729F85
:10084000BB27F00DB11D639FAA27F00DB11DAA1F94
:10085000649F6627B00DA11D661F829F2227B00DE1
:10086000A11D621F739FB00DA11D621F839FA00D6C
:10087000611D221F749F3327A00D611D231F849FBC
:10088000600D211D822F762F6A2F11249F57504013
:100890009AF0F1F088234AF0EE0FFF1FBB1F661F8E
:1008A000771F881F91505040A9F79E3F510580F057
:1008B0000C94AC030C94F7035F3FE4F3983ED4F33D
:1008C000869577956795B795F795E7959F5FC1F7FB
:1008D000FE2B880F911D9695879597F90895F894AA
:0208E000FFCF48
:00000001FF
